:020000040800F2
:1000000000500020AD200008BD1B0008C91B0008DF
:10001000CF1B0008D51B0008DB1B000800000000F8
:10002000000000000000000000000000E11B0008CC
:10003000ED1B000800000000F91B0008051C00086B
:10004000F1200008F1200008F1200008F12000084C
:10005000F1200008F1200008F1200008F12000083C
:10006000F1200008F1200008F1200008F12000082C
:10007000F1200008F1200008F1200008F12000081C
:10008000F1200008F1200008F1200008F12000080C
:10009000F1200008F1200008F1200008F1200008FC
:1000A000F1200008F1200008F1200008F1200008EC
:1000B000F1200008F1200008F1200008F1200008DC
:1000C000F1200008F1200008F1200008F1200008CC
:1000D000F1200008F1200008F1200008F1200008BC
:1000E000F1200008F1200008F120000800000000C5
:1000F0000000000000000000000000000000000000
:0C01000000000000000000005FF808F1A3
:10010C0080B582B000AF0121082000F0BFFF802332
:10011C00BB801023FB710323BB713B1D194609489F
:10012C0000F076FA4FF48063BB800423FB71032349
:10013C00BB713B1D1946034800F06AFA00BF083733
:10014C00BD4680BD000C014080B584B000AF0121DC
:10015C004FF4804000F09AFF4FF4E1333B600023F2
:10016C00BB800023FB8000233B810023BB810C233D
:10017C007B813B461946054801F0FEF801210348F6
:10018C0001F010FA00BF1037BD4680BD00380140A9
:10019C0080B500AFFFF7B4FFFFF7D6FF00BF80BDFF
:1001AC0080B584B000AFFFF7F3FF0023FB81802103
:1001BC00104800F046FB0023BB6005E0FB890133CF
:1001CC00FB81BB680133BB60BB680B4A9342F5D91A
:1001DC008021084800F043FB00237B6005E0FB898D
:1001EC00013BFB817B6801337B607B68024A934255
:1001FC00F5D9DCE7000C01407F841E0080B483B08D
:10020C0000AF7860FEE780B483B000AF78604FF049
:10021C00FF3318460C37BD4680BC704780B485B0A0
:10022C0000AFF860B9607A60044B0C221A604FF092
:10023C00FF3318461437BD4680BC7047A408002015
:10024C0080B400AF044B0B221A604FF0FF331846FA
:10025C00BD4680BC704700BFA408002080B483B0AA
:10026C0000AF786039603B684FF400525A6000234D
:10027C0018460C37BD4680BC704780B400AF0123D4
:10028C001846BD4680BC704780B483B000AF786020
:10029C007B680033022B01D8012303E0044B0922B5
:1002AC001A60002318460C37BD4680BC704700BF4F
:1002BC00A408002080B483B000AF78603960054B8F
:1002CC0016221A604FF0FF3318460C37BD4680BC1F
:1002DC00704700BFA408002080B483B000AF7860E2
:1002EC003960054B1F221A604FF0FF3318460C374C
:1002FC00BD4680BC704700BFA408002080B485B008
:10030C0000AFF860B9607A60002318461437BD4618
:10031C0080BC704780B584B000AF7860154B1B680B
:10032C00002B02D1134B144A1A60124B1B68FB6052
:10033C0001F09AFD0346BB600E4B1A687B681A44A9
:10034C00BB689A420AD919220C49022000F08EF897
:10035C000B4B0C221A604FF0FF3306E0054B1A686A
:10036C007B681344034A1360FB6818461037BD467C
:10037C0080BD00BF6C080020CC080020AC29000810
:10038C00A408002080B588B000AFF860B9607A602E
:10039C000023BB61FB68002B1FD10023FB6117E01E
:1003AC0000BF2021124801F057FB0346002BF8D068
:1003BC000F4801F021FA0346FB75BB685A1CBA6062
:1003CC00FA7D1A70BB690133BB61FB690133FB61B8
:1003DC00FA697B689A42E3DB05E0064B09221A6056
:1003EC004FF0FF3300E0BB6918462037BD4680BD97
:1003FC0000380140A408002080B483B000AF7860BE
:10040C0039603B684FF400525A60002318460C3791
:10041C00BD4680BC704780B483B000AF78604FF0AD
:10042C00FF3318460C37BD4680BC704780B483B090
:10043C0000AF7860044B02221A604FF0FF3318466D
:10044C000C37BD4680BC7047A408002080B483B034
:10045C0000AF7860044B0A221A604FF0FF33184645
:10046C000C37BD4680BC7047A408002080B586B010
:10047C0000AFF860B9607A60FB68012B02D0022BE8
:10048C001CD037E000237B6113E000BF40211F48E4
:10049C0001F0E2FA0346002BF8D0BB685A1CBA6094
:1004AC001B789BB21946194801F095F97B69013309
:1004BC007B617A697B689A42E7DB21E000237B61F0
:1004CC0013E000BF4021114801F0C6FA0346002B8F
:1004DC00F8D0BB685A1CBA601B789BB219460B4803
:1004EC0001F079F97B6901337B617A697B689A4207
:1004FC00E7DB05E0064B09221A604FF0FF3300E002
:10050C007B6818461837BD4680BD00BF00380140D7
:10051C00A408002080B582B000AF78607B682F4AB9
:10052C00934208D10121042000F0ECFD00210420AD
:10053C0000F0E8FD4EE07B68294A934208D1012186
:10054C00082000F0DFFD0021082000F0DBFD41E079
:10055C007B68244A934208D10121102000F0D2FD7F
:10056C000021102000F0CEFD34E07B681E4A93423F
:10057C0008D10121202000F0C5FD0021202000F031
:10058C00C1FD27E07B68194A934208D10121402024
:10059C0000F0B8FD0021402000F0B4FD1AE07B68AB
:1005AC00134A934208D10121802000F0ABFD0021B9
:1005BC00802000F0A7FD0DE07B680E4A934209D124
:1005CC0001214FF4807000F09DFD00214FF48070EC
:1005DC0000F098FD00BF0837BD4680BD0008014003
:1005EC00000C0140001001400014014000180140B3
:1005FC00001C01400020014080B500AF012101200A
:10060C0000F080FD0021012000F07CFD00BF80BDCA
:10061C0080B489B000AF786039600023FB6100239F
:10062C003B610023BB610023FB6000237B61002343
:10063C00BB603B68DB7803F00F03FB613B68DB7846
:10064C0003F01003002B05D03B689B781A46FB691E
:10065C001343FB613B681B88DBB2002B44D07B68E7
:10066C001B687B610023BB6138E00122BB6902FA85
:10067C0003F3FB603B681B881A46FB6813403B6125
:10068C003A69FB689A4226D1BB699B00FB600F223A
:10069C00FB6802FA03F3BB60BB68DB437A69134067
:1006AC007B61FA69FB6802FA03F37A6913437B6195
:1006BC003B68DB78282B05D10122BB699A407B680B
:1006CC005A6108E03B68DB78482B04D10122BB69F6
:1006DC009A407B681A61BB690133BB61BB69072B0C
:1006EC00C3D97B687A691A603B681B88FF2B46D993
:1006FC007B685B687B610023BB613AE0BB690833B4
:10070C00012202FA03F3FB603B681B881A46FB6864
:10071C0013403B613A69FB689A4227D1BB699B0045
:10072C00FB600F22FB6802FA03F3BB60BB68DB4380
:10073C007A6913407B61FA69FB6802FA03F37A6900
:10074C0013437B613B68DB78282B05D1BB690833ED
:10075C0001229A407B685A613B68DB78482B05D1B3
:10076C00BB69083301229A407B681A61BB6901336B
:10077C00BB61BB69072BC1D97B687A695A6000BF22
:10078C002437BD4680BC704780B483B000AF78601E
:10079C007B684FF6FF721A807B6802229A707B6826
:1007AC000422DA7000BF0C37BD4680BC704780B4A1
:1007BC0085B000AF78600B467B800023FB737B68B1
:1007CC009A687B881340002B02D00123FB7301E055
:1007DC000023FB73FB7B18461437BD4680BC704767
:1007EC0080B483B000AF78607B689B689BB218467E
:1007FC000C37BD4680BC704780B485B000AF7860C4
:10080C000B467B800023FB737B68DA687B88134084
:10081C00002B02D00123FB7301E00023FB73FB7B55
:10082C0018461437BD4680BC704780B483B000AF07
:10083C0078607B68DB689BB218460C37BD4680BC81
:10084C00704780B483B000AF78600B467B807A88A9
:10085C007B681A6100BF0C37BD4680BC704780B402
:10086C0083B000AF78600B467B807A887B685A61D6
:10087C0000BF0C37BD4680BC704780B483B000AF5E
:10088C0078600B467B8013467B707B78002B03D003
:10089C007A887B681A6102E07A887B685A6100BFAB
:1008AC000C37BD4680BC704780B483B000AF786015
:1008BC000B467B807A887B68DA6000BF0C37BD46BC
:1008CC0080BC704780B485B000AF78600B467B80ED
:1008DC004FF48033FB607B88FA681343FB607B68C2
:1008EC00FA689A617A887B689A617B68FA689A617F
:1008FC007B689B69FB607B689B69FB6000BF14375E
:10090C00BD4680BC704780B485B000AF03460A4634
:10091C00FB711346BB710023FB600C4B1B68FB6027
:10092C00FA684FF680731340FB60FB791B01FA6881
:10093C001343FB60BB79FA681343FB60034AFB6803
:10094C00136000BF1437BD4680BC704700000140E7
:10095C0080B483B000AF0346FB71044AFB7913608B
:10096C0000BF0C37BD4680BC704700BF1C00204246
:10097C0080B487B000AF78600B46FB7000233B61FE
:10098C000023FB6000237B610023BB607B68002B92
:10099C0003DA2E4BDB697B6102E02C4B5B687B61DD
:1009AC007B681B0C03F00F03BB607B689BB23B6145
:1009BC007B6803F44013B3F5401F0AD17B6923F025
:1009CC0070637B61214A214B5B6823F07063536039
:1009DC0021E07B6803F48013002B0ED00322BB684C
:1009EC0002FA03F3FB60FB68DB437A6913407B611B
:1009FC007B6943F070637B610DE07B685B0D1B01D1
:100A0C003A6902FA03F3DB437A6913407B617B6931
:100A1C0043F070637B61FB78002B08D07B685B0D27
:100A2C001B013A6902FA03F37A6913437B617B6811
:100A3C00002B03DA054A7B69D36102E0034A7B6928
:100A4C00536000BF1C37BD4680BC7047000001409E
:100A5C0090B484B000AF03460A46FB711346BB71D9
:100A6C000023FB60BB7903F003039B000F2202FA07
:100A7C0003F3FB601649BB799B08DBB21846144A9A
:100A8C00BB799B08DBB2023352F82320FB68DB43B3
:100A9C001A40831C41F823200D48BB799B08DBB21C
:100AAC001C460B4ABB799B08DBB2023352F823205D
:100ABC00F979BB7903F003039B0001FA03F31A43A2
:100ACC00A31C40F8232000BF1037BD4690BC7047D4
:100ADC000000014080B483B000AF7860034A7B68AB
:100AEC00136000BF0C37BD4680BC7047DC00204251
:100AFC0080B400AF134A134B1B6843F0010313601F
:100B0C001049104B5A68104B13404B600D4A0D4B5B
:100B1C001B6823F0847323F480331360094A094B58
:100B2C001B6823F480231360064A064B5B6823F48E
:100B3C00FE035360034B4FF41F029A6000BFBD4687
:100B4C0080BC7047001002400000FFF880B483B0F6
:100B5C0000AF7860134A134B1B6823F48033136087
:100B6C00104A104B1B6823F4802313607B68B3F589
:100B7C00803F03D0B3F5802F07D00DE0094A094B15
:100B8C001B6843F48033136006E0064A054B1B6870
:100B9C0043F4A023136000BF00BF0C37BD4680BCDC
:100BAC00704700BF0010024080B582B000AF002338
:100BBC003B600023FB710023BB71312000F00EFB66
:100BCC000346BB713B6801333B603B68B3F5A06FD8
:100BDC0002D0BB79002BF0D0312000F0FFFA034695
:100BEC00002B02D00123FB7101E00023FB71FB7988
:100BFC0018460837BD4680BD80B485B000AF0346AB
:100C0C00FB710023FB600A4B1B68FB60FB6823F045
:100C1C00F803FB60FB79DB00FA681343FB60044AC2
:100C2C00FB68136000BF1437BD4680BC704700BF23
:100C3C000010024080B483B000AF0346FB71044A3D
:100C4C00FB79136000BF0C37BD4680BC704700BFFA
:100C5C000000424280B485B000AF78603960002358
:100C6C00FB600A4B5B68FB60FB6823F47C13FB6046
:100C7C007A683B681343FA681343FB60034AFB68CA
:100C8C00536000BF1437BD4680BC70470010024053
:100C9C0080B483B000AF0346FB71044AFB79136048
:100CAC0000BF0C37BD4680BC704700BF600042429D
:100CBC0080B485B000AF78600023FB60094B5B68A3
:100CCC00FB60FB6823F00303FB60FA687B6813434B
:100CDC00FB60044AFB68536000BF1437BD4680BC00
:100CEC00704700BF0010024080B400AF044B5B683B
:100CFC00DBB203F00C03DBB21846BD4680BC704778
:100D0C000010024080B485B000AF78600023FB6017
:100D1C00094B5B68FB60FB6823F0F003FB60FA682F
:100D2C007B681343FB60044AFB68536000BF1437B5
:100D3C00BD4680BC704700BF0010024080B485B037
:100D4C0000AF78600023FB60094B5B68FB60FB68BD
:100D5C0023F4E063FB60FA687B681343FB60044A8E
:100D6C00FB68536000BF1437BD4680BC704700BFA2
:100D7C000010024080B485B000AF78600023FB60A7
:100D8C00094B5B68FB60FB6823F46053FB607B687A
:100D9C00DB00FA681343FB60034AFB68536000BF37
:100DAC001437BD4680BC70470010024080B483B03D
:100DBC0000AF03460A46FB711346BB71BB79002B8F
:100DCC0008D00C490B4B1B78DAB2FB791343DBB21E
:100DDC000B7009E00749074B1B78DAB2FB79DB4350
:100DEC00DBB21340DBB20B7000BF0C37BD4680BCCE
:100DFC00704700BF0910024080B483B000AF786028
:100E0C00034A7B68136000BF0C37BD4680BC70473B
:100E1C00D800424280B485B000AF78600023FB60FC
:100E2C00094B5B68FB60FB6823F44043FB60FA688A
:100E3C007B681343FB60044AFB68536000BF1437A4
:100E4C00BD4680BC704700BF0010024080B483B028
:100E5C0000AF0346FB710C4B00221A700A4B0022A8
:100E6C001A70FB79012B02D0042B04D007E0064B3F
:100E7C0001221A7003E0044B05221A7000BF00BF58
:100E8C000C37BD4680BC70472010024080B483B044
:100E9C0000AF0346FB71044AFB79136000BF0C37AB
:100EAC00BD4680BC704700BF8004424280B483B012
:100EBC0000AF78600549054B1A6A7B6813430B62D7
:100ECC0000BF0C37BD4680BC704700BF001002400D
:100EDC0080B483B000AF0346FB71044AFB79136006
:100EEC0000BF0C37BD4680BC704700BF3C0442427B
:100EFC0080B487B000AF786000237B6100233B6136
:100F0C000023FB600023BB604C4B5B6803F00C03BD
:100F1C007B617B69042B07D0082B09D0002B33D1C4
:100F2C007B68474A1A6033E07B68454A1A602FE0B9
:100F3C00424B5B6803F470133B61404B5B6803F4FA
:100F4C008033FB603B699B0C02333B61FB68002BDD
:100F5C0006D13B693B4A02FB03F27B681A6017E03F
:100F6C00364B5B6803F40033002B06D03B69354AE3
:100F7C0002FB03F27B681A600AE03B69304A02FB11
:100F8C0003F27B681A6003E07B682D4A1A6000BF8D
:100F9C002A4B5B6803F0F0037B617B691B097B6167
:100FAC00294A7B6913441B78DBB2BB607B681A68E7
:100FBC00BB68DA407B685A60204B5B6803F4E063E3
:100FCC007B617B691B0A7B611F4A7B6913441B781D
:100FDC00DBB2BB607B685A68BB68DA407B689A609E
:100FEC00164B5B6803F460537B617B69DB0A7B61A6
:100FFC00154A7B6913441B78DBB2BB607B685A686B
:10100C00BB68DA407B68DA600C4B5B6803F44043E6
:10101C007B617B699B0B7B610C4A7B6913441B785E
:10102C00DBB2BB607B68DA68BB68B2FBF3F27B684F
:10103C001A6100BF1C37BD4680BC704700100240CF
:10104C0000127A0000093D0004000020140000206A
:10105C0080B483B000AF78600B46FB70FB78002B3C
:10106C0006D00949084B5A697B6813434B6106E06B
:10107C000549054B5A697B68DB4313404B6100BF44
:10108C000C37BD4680BC70470010024080B483B062
:10109C0000AF78600B46FB70FB78002B06D009493B
:1010AC00084B9A697B6813438B6106E00549054B35
:1010BC009A697B68DB4313408B6100BF0C37BD46DC
:1010CC0080BC70470010024080B483B000AF7860E1
:1010DC000B46FB70FB78002B06D00949084BDA69EC
:1010EC007B681343CB6106E00549054BDA697B68E5
:1010FC00DB431340CB6100BF0C37BD4680BC70474F
:10110C000010024080B483B000AF78600B46FB70D7
:10111C00FB78002B06D00949084BDA687B6813432F
:10112C00CB6006E00549054BDA687B68DB4313406E
:10113C00CB6000BF0C37BD4680BC7047001002402E
:10114C0080B483B000AF78600B46FB70FB78002B4B
:10115C0006D00949084B1A697B6813430B6106E0FA
:10116C000549054B1A697B68DB4313400B6100BFD3
:10117C000C37BD4680BC70470010024080B483B071
:10118C0000AF0346FB71044AFB79136000BF0C37B8
:10119C00BD4680BC704700BF4004424280B483B05F
:1011AC0000AF0346FB71044AFB79136000BF0C3798
:1011BC00BD4680BC704700BF4C00424280B483B037
:1011CC0000AF0346FB71044AFB79137000BF0C3768
:1011DC00BD4680BC704700BF0710024080B487B08A
:1011EC0000AF0346FB710023FB6000237B610023EF
:1011FC00FB74FB795B09DBB2FB60FB68012B03D151
:10120C00124B1B687B6109E0FB68022B03D10F4B6F
:10121C001B6A7B6102E00D4B5B6A7B61FB7903F01F
:10122C001F03FB607A69FB6822FA03F303F00103E6
:10123C00002B02D00123FB7401E00023FB74FB7C28
:10124C0018461C37BD4680BC704700BF00100240DA
:10125C0080B400AF044A044B5B6A43F08073536262
:10126C0000BFBD4680BC70470010024080B485B002
:10127C0000AF0346FB710023FB73084B9A68FB79A4
:10128C001340002B02D00123FB7301E00023FB73FE
:10129C00FB7B18461437BD4680BC704700100240DB
:1012AC0080B483B000AF0346FB71044AFB79137022
:1012BC0000BF0C37BD4680BC704700BF0A1002400F
:1012CC0080B582B000AF78607B68264A93420AD121
:1012DC0001214FF48040FFF715FF00214FF48040AF
:1012EC00FFF710FF3AE07B681F4A93420AD10121B5
:1012FC004FF40030FFF724FF00214FF40030FFF7CC
:10130C001FFF2BE07B68194A93420AD101214FF44D
:10131C008020FFF715FF00214FF48020FFF710FF0E
:10132C001CE07B68124A93420AD101214FF4002041
:10133C00FFF706FF00214FF40020FFF701FF0DE03F
:10134C007B680C4A934209D101214FF48010FFF7BE
:10135C00F7FE00214FF48010FFF7F2FE00BF0837B4
:10136C00BD4680BD003801400044004000480040AC
:10137C00004C00400050004080B58CB000AF78604D
:10138C0039600023FB620023BB6200237B620023D5
:10139C003B620023FB617B68FB617B681B8A9BB211
:1013AC00FB62FA6A4CF6FF731340FB623B68DB8806
:1013BC001A46FB6A1343FB62FB6A9AB27B681A8279
:1013CC007B689B899BB2FB62FA6A4EF6F31313405F
:1013DC00FB623B689A883B681B8913439AB23B6853
:1013EC005B8913439BB21A46FB6A1343FB62FB6A8D
:1013FC009AB27B689A817B689B8A9BB2FB62FA6A81
:10140C004FF6FF431340FB623B689B891A46FB6A0D
:10141C001343FB62FB6A9AB27B689A8207F108035A
:10142C001846FFF765FDFB692E4A934202D17B6992
:10143C00BB6201E03B69BB627B689B899BB21BB2C0
:10144C00002B0CDABA6A13469B0013449A001A4418
:10145C003B681B685B00B2FBF3F37B620BE0BA6A80
:10146C0013469B0013449A001A443B681B689B006C
:10147C00B2FBF3F37B627B6A1B4AA2FB03235B097F
:10148C001B01FB62FB6A1B09642202FB03F37A6AF1
:10149C00D31A3B627B689B899BB21BB2002B0CDA84
:1014AC003B6ADB003233104AA2FB03235B0903F0D7
:1014BC000703FA6A1343FB620BE03B6A1B013233EE
:1014CC00094AA2FB03235B0903F00F03FA6A1343D7
:1014DC00FB62FB6A9AB27B681A8100BF3037BD464B
:1014EC0080BD00BF003801401F85EB5180B483B034
:1014FC0000AF78607B684FF416521A607B6800224C
:10150C009A807B680022DA807B6800221A817B68D3
:10151C000C225A817B6800229A8100BF0C37BD4691
:10152C0080BC704780B485B000AF78603960002310
:10153C00FB607B681B8A9BB2FB60FA684FF2FF036F
:10154C001340FB603B681A883B685B8813439AB274
:10155C003B689B8813439AB23B68DB8813439BB26E
:10156C001A46FB681343FB60FB689AB27B681A82CD
:10157C0000BF1437BD4680BC704780B483B000AF49
:10158C0078607B6800221A807B6800225A807B6816
:10159C0000229A807B680022DA8000BF0C37BD469F
:1015AC0080BC704780B483B000AF78600B46FB7092
:1015BC00FB78002B08D07B689B899BB243F40053CB
:1015CC009AB27B689A8107E07B689B899BB223F473
:1015DC0000539AB27B689A8100BF0C37BD4680BC21
:1015EC00704780B487B000AF78600B467B801346A1
:1015FC007B7000233B610023FB600023BB60002356
:10160C007B617B687B617B88DBB25B09DBB23B6116
:10161C007B8803F01F03FB600122FB6802FA03F3D3
:10162C00BB603B69012B03D17B690C337B6109E007
:10163C003B69022B03D17B6910337B6102E07B6930
:10164C0014337B617B78002B06D07B697A69116837
:10165C00BA680A431A6006E07B697A691168BA684D
:10166C00D2430A401A6000BF1C37BD4680BC70478D
:10167C0080B483B000AF78600B467B8013467B70E0
:10168C007B78002B08D07B689B8A9AB27B881343AB
:10169C009AB27B689A8209E07B689B8A9AB27B88B3
:1016AC00DB439BB213409AB27B689A8200BF0C3723
:1016BC00BD4680BC704780B483B000AF78600B46E9
:1016CC00FB707B681B8A9BB223F00F039AB27B687A
:1016DC001A827B681B8A9AB2FB789BB213439AB22C
:1016EC007B681A8200BF0C37BD4680BC704780B443
:1016FC0083B000AF78600B467B807B689B899BB284
:10170C0023F400639AB27B689A817B689B899AB2B6
:10171C007B8813439AB27B689A8100BF0C37BD4615
:10172C0080BC704780B483B000AF78600B46FB7010
:10173C00FB78002B08D07B689B899BB243F002039B
:10174C009AB27B689A8107E07B689B899BB223F0F5
:10175C0002039AB27B689A8100BF0C37BD4680BCED
:10176C00704780B483B000AF78600B467B807B6899
:10177C001B8A9BB223F020039AB27B681A827B6887
:10178C001B8A9AB27B8813439AB27B681A8200BF79
:10179C000C37BD4680BC704780B483B000AF786016
:1017AC000B46FB70FB78002B08D07B681B8A9BB226
:1017BC0043F480439AB27B681A8207E07B681B8AE9
:1017CC009BB223F480439AB27B681A8200BF0C3719
:1017DC00BD4680BC704780B483B000AF78600B46C8
:1017EC007B807B88C3F308039AB27B689A8000BF26
:1017FC000C37BD4680BC704780B483B000AF7860B6
:10180C007B689B889BB2C3F308039BB218460C37CA
:10181C00BD4680BC704780B483B000AF78607B68F5
:10182C009B899BB243F001039AB27B689A8100BFFB
:10183C000C37BD4680BC704780B483B000AF786075
:10184C000B46FB707B681B8B9BB2DBB29AB27B683E
:10185C001A837B681B8B9AB2FB789BB21B029BB2E0
:10186C0013439AB27B681A8300BF0C37BD4680BC09
:10187C00704780B483B000AF78600B46FB707B6818
:10188C001B8B9BB223F0FF039AB27B681A837B6895
:10189C001B8B9AB2FB789BB213439AB27B681A8368
:1018AC0000BF0C37BD4680BC704780B483B000AF1E
:1018BC0078600B46FB70FB78002B08D07B689B8A0A
:1018CC009BB243F020039AB27B689A8207E07B6854
:1018DC009B8A9BB223F020039AB27B689A8200BF4A
:1018EC000C37BD4680BC704780B483B000AF7860C5
:1018FC000B46FB70FB78002B08D07B689B8A9BB255
:10190C0043F010039AB27B689A8207E07B689B8A4B
:10191C009BB223F010039AB27B689A8200BF0C37FB
:10192C00BD4680BC704780B483B000AF78600B4676
:10193C00FB70FB78002B08D07B689B8A9BB243F032
:10194C0008039AB27B689A8207E07B689B8A9BB2F9
:10195C0023F008039AB27B689A8200BF0C37BD460D
:10196C0080BC704780B483B000AF78600B46FB70CE
:10197C00FB78002B0AD07B689B899BB26FEA4343B0
:10198C006FEA53439AB27B689A8107E07B689B8924
:10199C009BB2C3F30E039AB27B689A8100BF0C37DB
:1019AC00BD4680BC704780B483B000AF78600B46F6
:1019BC00FB70FB78002B08D07B689B8A9BB243F4AE
:1019CC0000639AB27B689A8207E07B689B8A9BB221
:1019DC0023F400639AB27B689A8200BF0C37BD4631
:1019EC0080BC704780B483B000AF78600B467B80BE
:1019FC007B689B8A9BB223F004039AB27B689A8221
:101A0C007B689B8A9AB27B8813439AB27B689A82D2
:101A1C0000BF0C37BD4680BC704780B483B000AFAC
:101A2C0078600B46FB70FB78002B08D07B689B8A98
:101A3C009BB243F002039AB27B689A8207E07B6800
:101A4C009B8A9BB223F002039AB27B689A8200BFF6
:101A5C000C37BD4680BC704780B485B000AF786051
:101A6C000B467B800023FB737B681B889AB27B88B8
:101A7C0013409BB2002B02D00123FB7301E0002327
:101A8C00FB73FB7B18461437BD4680BC704780B493
:101A9C0083B000AF78600B467B807B88DB439AB2C7
:101AAC007B681A8000BF0C37BD4680BC704780B481
:101ABC0087B000AF78600B467B800023FB6000236F
:101ACC007B610023BB600023FB747B88DBB25B096A
:101ADC00DBB2BB607B8803F01F037B6101227B6957
:101AEC0002FA03F37B61BB68012B07D17B689B89EE
:101AFC009BB21A467B6913407B6111E0BB68022BD9
:101B0C0007D17B681B8A9BB21A467B6913407B61A9
:101B1C0006E07B689B8A9BB21A467B6913407B610B
:101B2C007B881B0A9BB2FB600122FB6802FA03F361
:101B3C00FB607B681B889BB21A46FB681340FB60FA
:101B4C007B69002B05D0FB68002B02D00123FB74B2
:101B5C0001E00023FB74FB7C18461C37BD4680BC9F
:101B6C00704780B485B000AF78600B467B80002353
:101B7C00FB810023BB817B881B0AFB81FB89012233
:101B8C0002FA03F3BB81BB89DB439AB27B681A80F0
:101B9C0000BF1437BD4680BC704700BFC02C000886
:101BAC00000000206808002068080020CC080020F5
:101BBC0080B400AF00BFBD4680BC704780B400AF9E
:101BCC00FEE780B400AFFEE780B400AFFEE780B460
:101BDC0000AFFEE780B400AF00BFBD4680BC7047CD
:101BEC0080B400AF00BFBD4680BC704780B400AF6E
:101BFC0000BFBD4680BC704780B400AF00BFBD467F
:101C0C0080BC704780B500AF154A154B1B6843F07C
:101C1C00010313601249124B5A68124B13404B606C
:101C2C000F4A0F4B1B6823F0847323F4803313602B
:101C3C000B4A0B4B1B6823F480231360084A084B98
:101C4C005B6823F4FE035360054B4FF41F029A604C
:101C5C0000F078F8044B4FF000629A6000BF80BD32
:101C6C00001002400000FFF800ED00E080B485B0E9
:101C7C0000AF0023FB600023BB6000237B602C4B78
:101C8C005B6803F00C03FB60FB68042B07D0082B8C
:101C9C0009D0002B33D1274B274A1A6033E0254B50
:101CAC00254A1A602FE0224B5B6803F47013BB606B
:101CBC001F4B5B6803F480337B60BB689B0C023367
:101CCC00BB607B68002B06D1BB681C4A02FB03F38C
:101CDC00184A136017E0164B5B6803F40033002BB3
:101CEC0006D0BB68154A02FB03F3124A13600AE0E4
:101CFC00BB68114A02FB03F30E4A136003E00D4B61
:101D0C000D4A1A6000BF0A4B5B681B0903F00F03F6
:101D1C000B4AD35CDBB2FB60064B1A68FB6822FAF9
:101D2C0003F3044A136000BF1437BD4680BC7047F0
:101D3C00001002401800002000127A0000093D003B
:101D4C001C00002080B500AF00F002F800BF80BD81
:101D5C0080B483B000AF00237B6000233B603A4A21
:101D6C00394B1B6843F480331360374B1B6803F407
:101D7C0000333B607B6801337B603B68002B03D1F5
:101D8C007B68B3F5A06FF0D12F4B1B6803F40033C5
:101D9C00002B02D001233B6001E000233B603B6839
:101DAC00012B4BD1294A294B1B6843F010031360BC
:101DBC00264A264B1B6823F003031360234A234B4C
:101DCC001B6843F0020313601F4A1F4B5B68536090
:101DDC001D4A1D4B5B6853601B4A1B4B5B6843F4ED
:101DEC0080635360184A184B5B6823F47C13536070
:101DFC00154A154B5B6843F4E8135360124A124BB7
:101E0C001B6843F08073136000BF0F4B1B6803F01B
:101E1C000073002BF9D00C4A0B4B5B6823F00303C7
:101E2C005360094A084B5B6843F00203536000BFE0
:101E3C00054B5B6803F00C03082BF9D100BF0C3782
:101E4C00BD4680BC704700BF00100240002002401D
:101E5C00EFF30983184670471C4623461846034681
:101E6C0083F30988704700BFEFF308831846704767
:101E7C001C4623461846034683F30888704700BF68
:101E8C0080B483B000AF00237B60EFF312837B60E0
:101E9C007B6818460C37BD4680BC704780B483B055
:101EAC0000AF78607B6883F3118800BF0C37BD46A8
:101EBC0080BC704780B483B000AF00237B60EFF32D
:101ECC0010837B607B6818460C37BD4680BC70471E
:101EDC0080B483B000AF78607B6883F3108800BF58
:101EEC000C37BD4680BC704780B483B000AF002374
:101EFC007B60EFF313837B607B6818460C37BD4621
:101F0C0080BC704780B483B000AF78607B6883F38B
:101F1C00138800BF0C37BD4680BC704780B483B0BB
:101F2C0000AF00237B60EFF314837B607B68184663
:101F3C000C37BD4680BC704780B483B000AF78606E
:101F4C007B6883F3148800BF0C37BD4680BC704798
:101F5C0080B485B000AF78600023FB607B681BBA4F
:101F6C00FB60FB6818461437BD4680BC704780B4D4
:101F7C0085B000AF0346FB800023FB60FB885BBA97
:101F8C00FB60FB6818461437BD4680BC704780B4B4
:101F9C0085B000AF0346FB800023FB60FB88DBBAF7
:101FAC00FB60FB6818461437BD4680BC704780B494
:101FBC0085B000AF78600023FB607B6893FAA3F3D5
:101FCC00FB60FB6818461437BD4680BC704780B474
:101FDC0085B000AF78600023FB737B68D3E84F3F7C
:101FEC00FB73FB7B18461437BD4680BC704780B42E
:101FFC0085B000AF78600023FB817B68D3E85F3F3E
:10200C00FB81FB8918461437BD4680BC704780B4F1
:10201C0085B000AF78600023FB607B6853E8003F1D
:10202C00FB60FB6818461437BD4680BC704780B413
:10203C0085B000AF03463960FB710023FB603A6842
:10204C00F979C2E8431FFB60FB6818461437BD469C
:10205C0080BC704780B485B000AF03463960FB800C
:10206C000023FB603A68F988C2E8531FFB60FB68E9
:10207C0018461437BD4680BC704780B485B000AF9D
:10208C00786039600023FB603A68796842E8001395
:10209C00FB60FB6818461437BD4680BC70470000D7
:1020AC00002103E00A4B5B584350043109480A4BAA
:1020BC0042189A42F6D3094A02E0002342F8043B44
:1020CC00074B9A42F9D3FFF79DFDFEF769F870476D
:1020DC00C02C0008000000206808002068080020C0
:1020EC00CC080020FEE7000038B50C460968054610
:1020FC0009B1FFF7F9FF21462846BDE8384000F04A
:10210C0095B800BF204B1B6883423CD0C36C70B5A4
:10211C0005468BB10026995939B10C68284600F058
:10212C0085F82146002CF8D1EB6C0436802EF2D1C8
:10213C001946284600F07AF8296C11B1284600F0AF
:10214C0075F8D5F8481151B105F5A676B14206D00F
:10215C000C68284600F06AF8A6422146F8D1696D51
:10216C0011B1284600F062F8AB6B03B970BDEB6B94
:10217C0028469847D5F8E0120029F7D02846BDE844
:10218C007040FFF7B1BF70472C000020F8B50C462B
:10219C00234F064600F0D2FBBB68C4F57E615D6838
:1021AC000F3125F00305294421F47F6121F00F0143
:1021BC00A1F58054B4F5805F07DB0021304600F0B8
:1021CC00C9FBBB682B44984204D0304600F0BCFBE2
:1021DC000020F8BD6142304600F0BCFB01300DD050
:1021EC00104BBA6819682D1B45F001053046091BC8
:1021FC005560196000F0A8FB0120F8BD00213046A5
:10220C0000F0A8FBBA68831A0F2BDEDD064C0549DB
:10221C00246843F00103001B53600860D5E700BF3E
:10222C00580400207008002060080020002944D0C9
:10223C002DE9F0410D46804600F080FB55F8047CFA
:10224C006949A5F1080427F00103E2188E6850686B
:10225C00B24220F003005ED0FE0750600BD455F85C
:10226C00087C01F1080EE41BA5683B4475456DD054
:10227C00E768EF60BD6015186D68ED073ED543F05B
:10228C0001026260E350B3F5007F17D20122DB0834
:10229C0098104D68134451F83370824001EBC30021
:1022AC002A430838E060A7604A6041F83340FC607C
:1022BC004046BDE8F04100F047BB70475A0A042A7B
:1022CC0052D89A0902F13907FF0002F13805C819F2
:1022DC00CA59083890424FD0516821F003018B4203
:1022EC0032D292689042F7D1C368A060E3609C60E0
:1022FC00C4604046BDE8F04100F026BB95683B4FFA
:10230C000344BD4240D0D06843F00102E8608560D0
:10231C006260E350B7E7FF07034407D455F8085C45
:10232C00641BE268A0682B44C2609060304A43F0A2
:10233C0001001268606093428C60B9D32D4B40460B
:10234C001968FFF723FFB3E71046CDE7111849686A
:10235C00C90744D491680344D26843F00100CA60B1
:10236C0091606060E350A3E7142A16D802F15C0771
:10237C00FF0002F15B05AAE70123AA104D68934008
:10238C002B434B600346B0E743F001024C610C61F8
:10239C00E560A5606260E3508AE7542A06D81A0B00
:1023AC0002F16F07FF0002F16E0590E7B2F5AA7F0C
:1023BC0006D8DA0B02F17807FF0002F1770586E701
:1023CC0040F25450824206D89A0C02F17D07FF006D
:1023DC0002F17C057BE74FF47E777E2577E743F0AF
:1023EC0001016160136063E7580400206004002061
:1023FC0064080020A00800202DE9F04F01F10B0625
:10240C00162E83B0054640F29E8036F0070600F18A
:10241C00BD80B14200F2BA8000F090FAB6F5FC7FB4
:10242C00C0F08582730A00F0B880042B00F26C8136
:10243C00B30903F1390003F1380EC100B84F394428
:10244C004C680839A14206D10CE0002A80F2AB801E
:10245C00E468A14206D0636823F003039A1B0F2A99
:10246C00F3DD70463C69DFF8CCE2744500F09E81E8
:10247C00636823F003039A1B0F2A00F38381002A5D
:10248C00C7F814E0C7F810E080F29180B3F5007F34
:10249C0080F054810122DB0879684FEAA30C1344C5
:1024AC0057F8338002FA0CF207EBC30C0A43ACF179
:1024BC000801E160C4F808807A6047F83340C8F836
:1024CC000C40012483109C4094427DD8144206D1C8
:1024DC0020F003006400144200F10400FAD007EB72
:1024EC00C009CC468046DCF80C309C4507D15FE136
:1024FC00002A80F26D81DB689C4500F05981596897
:10250C0021F003018A1B0F2AF2DDDC68D3F808C026
:10251C0046F0010828461E4442F00105C3F8048029
:10252C00CCF80C40C4F808C07E613E61C6F80CE0E3
:10253C00C6F808E075605A50009300F005FA009B4D
:10254C0003F108041EE0102920D800F0F7F910263A
:10255C0018230220724F3B445C68A3F1080294429A
:10256C0000F02F816368E16823F0030323445A6869
:10257C00A66842F00102F16028468E605A6000F0B5
:10258C00E3F90834204603B0BDE8F08F00240C2397
:10259C0020462B6003B0BDE8F08F40204FF4007153
:1025AC004FF03F0E4AE723445A68E168E0E72344C2
:1025BC005A68284642F001025A60083400F0C4F907
:1025CC00204603B0BDE8F08FBC68636823F00308B5
:1025DC00B04504D3A8EB06030F2B00F38580DFF87E
:1025EC005891504BD9F800201B680132334404EB4E
:1025FC00080A00F0548103F580530F3323F47F6BEA
:10260C002BF00F0B5946284600F0A4F9411C02464A
:10261C0000F0FB80824500F2F680434B1968594468
:10262C00196000F04C81D9F8000001301BBFA2EBFF
:10263C000A0A5144C9F80020196012F0070100F091
:10264C001481C1F10800C1F580510244083102EB3C
:10265C000B09C9F30B09A1EB09094946284601935B
:10266C00009200F077F9431C9DE80C0000F04281C9
:10267C00801A484440F001001968BC424944BA60D1
:10268C001960506017D0B8F10F0F40F2FA804FF07C
:10269C00050C6268A8F10C0020F0070002F00102A2
:1026AC0004EB000E02430F286260CEF804C0CEF893
:1026BC0008C000F216811D4BBC681A68914288BF95
:1026CC0019601B4B1A689142626888BF196022F02E
:1026DC0003029642A2EB060301D80F2B04DC28461A
:1026EC0000F032F900244DE746F0010243F00103FB
:1026FC00264462602846BE600834736000F024F9FA
:10270C00204603B0BDE8F08F142B70D9542B00F287
:10271C00A280330B03F16F0003F16E0EC1008DE646
:10272C0058040020A0080020700800209808002001
:10273C009C08002060040020600800205A0A042A2B
:10274C005BD9142A00F2AE8002F15C01C9005B3245
:10275C0007EB010C7958ACF1080C8C4500F0888023
:10276C004A6822F00302934273D289688C45F7D1F0
:10277C00DCF80C307A68E360C4F808C09C60CCF8D4
:10278C000C409EE646F0010C42F001012644C4F8D0
:10279C0004C028467E613E61C6F80CE0C6F808E02D
:1027AC007160E25000F0D0F80834EBE67A6888E605
:1027BC0008F1010818F0030F0CF1080C7FF493AE2C
:1027CC002DE0DC68A34208BF02303FF44BAEC9E6F3
:1027DC001C4619444A68DB6854F8086F42F0010241
:1027EC004A602846F3609E6000F0AEF8CAE603F13A
:1027FC005C0003F15B0EC10020E69A0902F139017D
:10280C00C9003832A4E7BC4254D0BC68626822F0DC
:10281C0003025EE759F80839994540F0868010F0BC
:10282C00030F00F1FF30F5D17B6823EA04037B60D2
:10283C0064009C423FF6C8AE002C3FF4C5AE1C426F
:10284C0040467FF44CAE64001C4200F10400FAD008
:10285C0045E68C468CE7B3F5AA7F15D8F30B03F14C
:10286C00780003F1770EC100E8E54FF48051EEE6F5
:10287C0001217B68921001FA02F21A437A606346D6
:10288C0079E7012353602AE740F25452934222D84D
:10289C00B30C03F17D0003F17C0EC100CEE503F116
:1028AC00100BAFE6542A29D81A0B02F16F01C9009C
:1028BC006E324DE7204B196859441960B3E6CAF3E0
:1028CC000B0000287FF4AFAE08EB0B03BA6843F0A3
:1028DC0001035360EFE67F204FF47E714FF07E0EC4
:1028EC00ACE504F1080128460093FFF79FFC009B20
:1028FC001968E0E601204FF00009BDE6B2F5AA7FA9
:10290C0005D8DA0B02F17801C900773220E740F2E2
:10291C0054518A4205D89A0C02F17D01C9007C32CF
:10292C0016E74FF47E717E2212E77B6880E7F00891
:10293C0006F108030EE600BF70080020014800F005
:10294C0025B800BFB8080020014800F027B800BF28
:10295C00B808002038B50023064C0546084623600D
:10296C00FDF7D8FC431C00D038BD2368002BFBD0EE
:10297C002B6038BDA4080020704700BF704700BF13
:10298C00704700BF704700BF704700BF704700BF63
:10299C000120704701207047704700BF704700BF8F
:1029AC004865617020616E6420737461636B206391
:1029BC006F6C6C6973696F6E0A0000003000002048
:102CC0006808002000000000010203040102030460
:102CD000060708090204060800A24A0400000000D2
:102CE000000000000102030406070809300000206C
:102CF000000000001C03002084030020EC030020DF
:102D000000000000000000000000000000000000C3
:102D100000000000000000000000000000000000B3
:102D200000000000000000000000000000000000A3
:102D30000000000000000000000000000000000093
:102D40000000000000000000000000000000000083
:102D50000000000000000000000000000000000073
:102D60000000000000000000000000000000000063
:102D70000000000000000000000000000000000053
:102D80000000000000000000000000000000000043
:102D90000000000000000000010000000000000032
:102DA0000E33CDAB34126DE6ECDE05000B000000F7
:102DB0000000000000000000000000000000000013
:102DC0000000000000000000000000000000000003
:102DD00000000000000000000000000000000000F3
:102DE00000000000000000000000000000000000E3
:10312000580400205804002060040020600400209F
:10313000680400206804002070040020700400204F
:1031400078040020780400208004002080040020FF
:1031500088040020880400209004002090040020AF
:103160009804002098040020A0040020A00400205F
:10317000A8040020A8040020B0040020B00400200F
:10318000B8040020B8040020C0040020C0040020BF
:10319000C8040020C8040020D0040020D00400206F
:1031A000D8040020D8040020E0040020E00400201F
:1031B000E8040020E8040020F0040020F0040020CF
:1031C000F8040020F804002000050020000500207D
:1031D000080500200805002010050020100500202B
:1031E00018050020180500202005002020050020DB
:1031F000280500202805002030050020300500208B
:10320000380500203805002040050020400500203A
:1032100048050020480500205005002050050020EA
:10322000580500205805002060050020600500209A
:10323000680500206805002070050020700500204A
:1032400078050020780500208005002080050020FA
:1032500088050020880500209005002090050020AA
:103260009805002098050020A0050020A00500205A
:10327000A8050020A8050020B0050020B00500200A
:10328000B8050020B8050020C0050020C0050020BA
:10329000C8050020C8050020D0050020D00500206A
:1032A000D8050020D8050020E0050020E00500201A
:1032B000E8050020E8050020F0050020F0050020CA
:1032C000F8050020F8050020000600200006002078
:1032D0000806002008060020100600201006002026
:1032E00018060020180600202006002020060020D6
:1032F0002806002028060020300600203006002086
:103300003806002038060020400600204006002035
:1033100048060020480600205006002050060020E5
:103320005806002058060020600600206006002095
:103330006806002068060020700600207006002045
:1033400078060020780600208006002080060020F5
:1033500088060020880600209006002090060020A5
:103360009806002098060020A0060020A006002055
:10337000A8060020A8060020B0060020B006002005
:10338000B8060020B8060020C0060020C0060020B5
:10339000C8060020C8060020D0060020D006002065
:1033A000D8060020D8060020E0060020E006002015
:1033B000E8060020E8060020F0060020F0060020C5
:1033C000F8060020F8060020000700200007002073
:1033D0000807002008070020100700201007002021
:1033E00018070020180700202007002020070020D1
:1033F0002807002028070020300700203007002081
:103400003807002038070020400700204007002030
:1034100048070020480700205007002050070020E0
:103420005807002058070020600700206007002090
:103430006807002068070020700700207007002040
:1034400078070020780700208007002080070020F0
:1034500088070020880700209007002090070020A0
:103460009807002098070020A0070020A007002050
:10347000A8070020A8070020B0070020B007002000
:10348000B8070020B8070020C0070020C0070020B0
:10349000C8070020C8070020D0070020D007002060
:1034A000D8070020D8070020E0070020E007002010
:1034B000E8070020E8070020F0070020F0070020C0
:1034C000F8070020F807002000080020000800206E
:1034D000080800200808002010080020100800201C
:1034E00018080020180800202008002020080020CC
:1034F000280800202808002030080020300800207C
:10350000380800203808002040080020400800202B
:1035100048080020480800205008002050080020DB
:08352000FFFFFFFF00000200A5
:04000005080020AD22
:00000001FF
